:100000000C9434000C9451000C9451000C94510049
:100010000C9451000C9451000C9451000C9451001C
:100020000C9451000C9451000C9451000C9451000C
:100030000C9451000C9451000C9451000C945100FC
:100040000C9451000C9451000C9451000C945100EC
:100050000C9451000C9451000C9451000C945100DC
:100060000C94A1000C94510011241FBECFEFD8E0D6
:10007000DEBFCDBF11E0A0E0B1E0E2E6F2E002C0F9
:1000800005900D92AE30B107D9F711E0AEE0B1E0C6
:1000900001C01D92AB33B107E1F70E9402010C943D
:1000A0002F010C9400001F93182F8A3019F48DE053
:1000B0000E9453008091C00085FFFCCF1093C600C2
:1000C00080E090E01F910895089514B815B817B80E
:1000D00018B81AB81BB8389A409A579A2198549869
:1000E0005398559A569A84B5816A84BD93E095BD1C
:1000F00018BC17BC209A39983A983B98ECE7F0E086
:1001000080818074808381E880937A00539A5B9A1F
:1001100082E08DBB9093690084E08093B800269ABA
:100120002E9818BC279A2F9817BC81E090E09093E6
:100130000F0180930E0181E0809311011092100154
:1001400008951F920F920FB60F9211240F900FBEB9
:100150000F901F901895EF92FF920F931F93DF93CC
:10016000CF9300D000D0CDB7DEB79AE399838A83CE
:100170004B836C83FE01319695E0E92E88E0F82EE2
:10018000A0E8B0E00AE11DE0BE016B5F7F4F26C032
:100190005F9A8E2D8A95F1F75F988F2D8A95F1F7EA
:1001A000CD01022E02C0959587950A94E2F784232B
:1001B0009523892B11F05F9A01C05F98802F8A9553
:1001C000F1F75F98812F8A95F1F72F5F3F4F283025
:1001D0003105F1F63196E617F70731F08081482FA7
:1001E00050E020E030E0D4CF85ED8A95F1F70F9014
:1001F0000F900F900F90CF91DF911F910F91FF9073
:10020000EF9008950F931F93CF93DF930E946500A3
:10021000789428E833E1C8ECD0E000E41CE905C09C
:10022000CE010197F1F72150304021153105C1F77A
:1002300082E362E342E30E94AB0088E893E1FE01BF
:100240003197F1F70197D9F780E060E040E00E9434
:10025000AB00C8010197F1F728E833E1E1CFF8944A
:02026000FFCFCE
:0E026200000000020000000053000000000039
:00000001FF
